:100000000C945D000C9485000C9485000C94850084
:100010000C9485000C9485000C9485000C9485004C
:100020000C9485000C9485000C9485000C9485003C
:100030000C9485000C9485000C9485000C9485002C
:100040000C9488020C9485000C94F8020C94D20253
:100050000C9485000C9485000C9485000C9485000C
:100060000C9485000C9485000000000024002700FB
:100070002A0000000000250028002B0004040404CE
:100080000404040402020202020203030303030342
:10009000010204081020408001020408102001021F
:1000A00004081020000000080002010000030407FB
:1000B0000000000000000000580411241FBECFEF14
:1000C000D8E0DEBFCDBF11E0A0E0B1E0EEE5F9E0A1
:1000D00002C005900D92AC31B107D9F721E0ACE137
:1000E000B1E001C01D92A43CB207E1F710E0CDE5FC
:1000F000D0E004C02197FE010E94A704CC35D107AF
:10010000C9F70E942A030C94AD040C940000E1EBA3
:10011000F0E02491EDE9F0E09491E9E8F0E0E49179
:10012000EE23C9F0222339F0233001F1A8F4213065
:1001300019F1223029F1F0E0EE0FFF1FEE58FF4FCA
:10014000A591B4912FB7F894EC91811126C09095A8
:100150009E239C932FBF08952730A9F02830C9F023
:10016000243049F7209180002F7D03C0209180002A
:100170002F7720938000DFCF24B52F7724BDDBCFEE
:1001800024B52F7DFBCF2091B0002F772093B000B6
:10019000D2CF2091B0002F7DF9CF9E2BDACF3FB781
:1001A000F8948091230190912401A0912501B091B0
:1001B000260126B5A89B05C02F3F19F00196A11D69
:1001C000B11D3FBFBA2FA92F982F8827BC01CD01A1
:1001D000620F711D811D911D42E0660F771F881F00
:1001E000991F4A95D1F708958F929F92AF92BF922F
:1001F000CF92DF92EF92FF920E94CF004B015C0101
:1002000084EFC82EDD24D394E12CF12C0E94CF0082
:10021000681979098A099B09683E7340810591052F
:10022000A8F321E0C21AD108E108F10888EE880E8F
:1002300083E0981EA11CB11CC114D104E104F10497
:1002400029F7FF90EF90DF90CF90BF90AF909F90F5
:100250008F900895AF92BF92CF92DF92EF92FF926C
:100260000F931F93CF93DF936C017B018B01040FDE
:10027000151FEB015E01AE18BF08C017D10759F07A
:100280006991D601ED91FC910190F081E02DC601BC
:100290000995892B79F7C501DF91CF911F910F91B6
:1002A000FF90EF90DF90CF90BF90AF900895FC014A
:1002B000538D448D252F30E0842F90E0821B930BCB
:1002C000541710F0CF96089501970895FC01918D71
:1002D000828D981761F0A28DAE0FBF2FB11D5D9674
:1002E0008C91928D9F5F9F73928F90E008958FEF16
:1002F0009FEF0895FC01918D828D981731F0828DCA
:10030000E80FF11D858D90E008958FEF9FEF089520
:10031000FC01918D228D892F90E0805C9F4F821B84
:1003200091098F739927089587E291E00E948801CF
:1003300021E0892B09F420E0822F089580E090E0ED
:10034000892B29F00E94940181110C9400000895DA
:10035000FC01A48DA80FB92FB11DA35ABF4F2C913A
:10036000848D90E001968F739927848FA689B78931
:100370002C93A089B1898C91837080648C93938D28
:10038000848D981306C00288F389E02D80818F7DCB
:1003900080830895EF92FF920F931F93CF93DF9383
:1003A000EC0181E0888F9B8D8C8D98131AC0E889B1
:1003B000F989808185FF15C09FB7F894EE89FF8980
:1003C0006083E889F98980818370806480839FBF1E
:1003D00081E090E0DF91CF911F910F91FF90EF901E
:1003E0000895F62E0B8D10E00F5F1F4F0F7311272E
:1003F000E02E8C8D8E110CC00FB607FCFACFE88969
:10040000F989808185FFF5CFCE010E94A801F1CF47
:10041000EB8DEC0FFD2FF11DE35AFF4FF0829FB7DC
:10042000F8940B8FEA89FB8980818062CFCFCF93CC
:10043000DF93EC01888D8823B9F0AA89BB89E8890C
:10044000F9898C9185FD03C0808186FD0DC00FB6B2
:1004500007FCF7CF8C9185FFF2CF808185FFEDCF30
:10046000CE010E94A801E9CFDF91CF910895FC0150
:1004700001900020E9F73197AF01481B590BBC01EF
:1004800087E291E00C942A018F929F92AF92BF92E3
:100490000F931F93CF93DF93CDB7DEB7A1970FB61E
:1004A000F894DEBF0FBECDBF19A2423008F44AE077
:1004B0008E010F5D1F4F842E912CB12CA12CA50114
:1004C00094010E948504E62FB901CA01EA30F4F4D0
:1004D000E05DD801EE938D01232B242B252B79F79A
:1004E00090E080E0109719F0CD010E943702A196AC
:1004F0000FB6F894DEBF0FBECDBFDF91CF911F9135
:100500000F91BF90AF909F908F900895E95CE1CFDD
:100510001F920F920FB60F9211242F933F938F9338
:100520009F93AF93BF9380911F0190912001A09161
:100530002101B091220130911E0123E0230F2D37BC
:1005400058F50196A11DB11D20931E0180931F0136
:1005500090932001A0932101B09322018091230167
:1005600090912401A0912501B09126010196A11D31
:10057000B11D8093230190932401A0932501B09392
:100580002601BF91AF919F918F913F912F910F9035
:100590000FBE0F901F90189526E8230F0296A11DFD
:1005A000B11DD2CF1F920F920FB60F9211242F932D
:1005B0003F934F935F936F937F938F939F93AF93EB
:1005C000BF93EF93FF9387E291E00E94A801FF9110
:1005D000EF91BF91AF919F918F917F916F915F91BB
:1005E0004F913F912F910F900FBE0F901F90189534
:1005F0001F920F920FB60F9211242F938F939F93F8
:10060000EF93FF93E0913701F09138018081E09101
:100610003D01F0913E0182FD1BC09081809140011F
:100620008F5F8F7320914101821741F0E09140016B
:10063000F0E0E95DFE4F958F80934001FF91EF91CF
:100640009F918F912F910F900FBE0F901F90189533
:100650008081F4CFCF93DF9300D000D01F92CDB72D
:10066000DEB7789484B5826084BD84B5816084BD32
:1006700085B5826085BD85B5816085BD80916E0040
:10068000816080936E001092810080918100826071
:1006900080938100809181008160809381008091AE
:1006A00080008160809380008091B100846080939D
:1006B000B1008091B00081608093B00080917A0099
:1006C000846080937A0080917A00826080937A00BF
:1006D00080917A00816080937A0080917A008068AE
:1006E00080937A001092C100E0913701F0913801B7
:1006F00082E08083E0913301F09134011082E09137
:100700003501F09136018FEC808310923F01E0912A
:100710003B01F0913C0186E08083E0913901F0914A
:100720003A01808180618083E0913901F0913A0142
:10073000808188608083E0913901F0913A01808165
:1007400080688083E0913901F0913A0180818F7D4A
:100750008083EDE9F0E02491E9E8F0E084918823DA
:1007600099F090E0880F991FFC01E859FF4FA5917F
:10077000B491FC01EE58FF4F859194918FB7F89496
:10078000EC91E22BEC938FBF8E010A5F1F4FEE249A
:10079000E394F12C90E0C92E90E0D92E80E00E94E5
:1007A00087000E94F400559A5D982FEF80EE90E04C
:1007B000215080409040E1F700C00000F8945D9A1D
:1007C00025ED2A95F1F70000559885E38A95F1F714
:1007D00000004D993CC08FE391E00197F1F700C014
:1007E00000004D9B34C04D99FECFFE013196108222
:1007F00087E090E04D9BFECF20EA2A95F1F74D9BD4
:1008000009C02081A701082E01C0440F0A94EAF70D
:10081000242B20834D99FECF019760F731960E1758
:100820001F0729F7789487EC90E00197F1F700C053
:10083000000029819B818A81820F890F3C81830F6F
:100840003D81831304C020931D0190931C0181E01E
:100850000E9487000E94F40060911D0170E090E00A
:1008600080E04AE00E94440282E191E00E94370267
:1008700085E191E00E94370260911C0170E090E0F8
:1008800080E04AE00E94440288E191E00E94370241
:1008900085E191E00E943702C114D10409F47ECFB2
:1008A0000E949401882309F479CF0E94000076CF3A
:1008B000E7E2F1E01382128288EE93E0A0E0B0E07C
:1008C00084839583A683B78384E091E091838083BA
:1008D00085EC90E09587848784EC90E09787868705
:1008E00080EC90E0918B808B81EC90E0938B828BFD
:1008F00082EC90E0958B848B86EC90E0978B868BD6
:10090000118E128E138E148E0895A1E21A2EAA1B38
:10091000BB1BFD010DC0AA1FBB1FEE1FFF1FA217AF
:10092000B307E407F50720F0A21BB30BE40BF50BAC
:10093000661F771F881F991F1A9469F76095709535
:10094000809590959B01AC01BD01CF010895EE0FFC
:0E095000FF1F0590F491E02D0994F894FFCF5D
:10095E0000000000CA012A01570117028801660132
:0C096E007A012025000D0A00202A430019
:00000001FF
