:100000000C9462000C948A000C948A000C948A0070
:100010000C948A000C948A000C948A000C948A0038
:100020000C948A000C948A000C948A000C948A0028
:100030000C948A000C948A000C948A000C948A0018
:100040000C94ED020C948A000C945D030C9437031D
:100050000C948A000C948A000C948A000C948A00F8
:100060000C948A000C948A000000000024002700F1
:100070002A0000000000250028002B0000000000DE
:1000800023002600290004040404040404040202DA
:100090000202020203030303030301020408102007
:1000A0004080010204081020010204081020000012
:1000B0000008000201000003040700000000000027
:1000C00000000B0511241FBECFEFD8E0DEBFCDBF6F
:1000D00011E0A0E0B1E0E4ECFAE002C005900D927E
:1000E000AC31B107D9F721E0ACE1B1E001C01D921C
:1000F000A63CB207E1F710E0C2E6D0E004C02197C9
:10010000FE010E945A05C136D107C9F70E948F032C
:100110000C9460050C940000833081F028F4813049
:1001200099F08230A9F008958730A9F08830C9F09D
:100130008430B1F4809180008F7D03C08091800075
:100140008F7780938000089584B58F7784BD08955C
:1001500084B58F7DFBCF8091B0008F778093B00006
:1001600008958091B0008F7DF9CFCF93DF93E3EBBB
:10017000F0E08491EFE9F0E0D491EBE8F0E0C49195
:10018000CC23A1F081110E948C00EC2FF0E0EE0F47
:10019000FF1FE458FF4FA591B491EC91ED2381E04E
:1001A00090E009F480E0DF91CF91089580E090E045
:1001B000FACF1F93CF93DF93282F30E0F901E25558
:1001C000FF4F8491F901E656FF4FD491F901EA57A8
:1001D000FF4FC491CC23A9F0162F81110E948C00EF
:1001E000EC2FF0E0EE0FFF1FEE58FF4FA591B491FA
:1001F0008FB7F894EC91111108C0D095DE23DC93F1
:100200008FBFDF91CF911F910895DE2BF8CFCF9351
:10021000DF9390E0FC01E656FF4F24918A579F4FF1
:10022000FC0184918823D1F090E0880F991FFC0194
:10023000E859FF4FA591B491FC01EE58FF4FC591CD
:10024000D49161110EC09FB7F8948C91E22FE09584
:100250008E238C932881E223E8839FBFDF91CF9187
:1002600008958FB7F894EC91E22BEC938FBFF6CF03
:100270003FB7F8948091250190912601A091270124
:10028000B091280126B5A89B05C02F3F19F0019613
:10029000A11DB11D3FBFBA2FA92F982F8827BC01E0
:1002A000CD01620F711D811D911D42E0660F771F08
:1002B000881F991F4A95D1F708958F929F92AF9208
:1002C000BF92CF92DF92EF92FF924B015C010E94AE
:1002D00038016B017C010E9438016C197D098E097F
:1002E0009F09683E734081059105A8F321E0821AB9
:1002F0009108A108B10888EEC80E83E0D81EE11C61
:10030000F11C81149104A104B10429F7FF90EF902E
:10031000DF90CF90BF90AF909F908F900895AF9255
:10032000BF92CF92DF92EF92FF920F931F93CF93E2
:10033000DF936C017B018B01040F151FEB015E0144
:10034000AE18BF08C017D10759F06991D601ED91D9
:10035000FC910190F081E02DC6010995892B79F778
:10036000C501DF91CF911F910F91FF90EF90DF902A
:10037000CF90BF90AF900895FC01538D448D252FF1
:1003800030E0842F90E0821B930B541710F0CF962F
:10039000089501970895FC01918D828D981761F061
:1003A000A28DAE0FBF2FB11D5D968C91928D9F5F78
:1003B0009F73928F90E008958FEF9FEF0895FC0157
:1003C000918D828D981731F0828DE80FF11D858D0A
:1003D00090E008958FEF9FEF0895FC01918D228D9D
:1003E000892F90E0805C9F4F821B91098F73992722
:1003F000089589E291E00E94ED0121E0892B09F442
:1004000020E0822F089580E090E0892B29F00E945F
:10041000F90181110C9400000895FC01A48DA80F2E
:10042000B92FB11DA35ABF4F2C91848D90E0019636
:100430008F739927848FA689B7892C93A089B18956
:100440008C91837080648C93938D848D981306C0F7
:100450000288F389E02D80818F7D80830895EF925B
:10046000FF920F931F93CF93DF93EC0181E0888F6E
:100470009B8D8C8D98131AC0E889F989808185FF3E
:1004800015C09FB7F894EE89FF896083E889F989E0
:1004900080818370806480839FBF81E090E0DF91E2
:1004A000CF911F910F91FF90EF900895F62E0B8D35
:1004B00010E00F5F1F4F0F731127E02E8C8D8E11F0
:1004C0000CC00FB607FCFACFE889F989808185FF57
:1004D000F5CFCE010E940D02F1CFEB8DEC0FFD2F79
:1004E000F11DE35AFF4FF0829FB7F8940B8FEA8912
:1004F000FB8980818062CFCFCF93DF93EC01888D21
:100500008823B9F0AA89BB89E889F9898C9185FD8E
:1005100003C0808186FD0DC00FB607FCF7CF8C911C
:1005200085FFF2CF808185FFEDCFCE010E940D02C5
:10053000E9CFDF91CF910895FC0101900020E9F708
:100540003197AF01481B590BBC0189E291E00C9433
:100550008F018F929F92AF92BF920F931F93CF9371
:10056000DF93CDB7DEB7A1970FB6F894DEBF0FBE0D
:10057000CDBF19A2423008F44AE08E010F5D1F4F33
:10058000842E912CB12CA12CA50194010E94380538
:10059000E62FB901CA01EA30F4F4E05DD801EE9328
:1005A0008D01232B242B252B79F790E080E01097E9
:1005B00019F0CD010E949C02A1960FB6F894DEBFFF
:1005C0000FBECDBFDF91CF911F910F91BF90AF9024
:1005D0009F908F900895E95CE1CF1F920F920FB624
:1005E0000F9211242F933F938F939F93AF93BF93B9
:1005F0008091210190912201A0912301B0912401C9
:100600003091200123E0230F2D3758F50196A11DCD
:10061000B11D209320018093210190932201A0938A
:100620002301B09324018091250190912601A0918E
:100630002701B09128010196A11DB11D80932501CC
:1006400090932601A0932701B0932801BF91AF9109
:100650009F918F913F912F910F900FBE0F901F9000
:10066000189526E8230F0296A11DB11DD2CF1F9227
:100670000F920FB60F9211242F933F934F935F93D6
:100680006F937F938F939F93AF93BF93EF93FF935A
:1006900089E291E00E940D02FF91EF91BF91AF912D
:1006A0009F918F917F916F915F914F913F912F918A
:1006B0000F900FBE0F901F9018951F920F920FB6BC
:1006C0000F9211242F938F939F93EF93FF93E091B9
:1006D0003901F0913A018081E0913F01F0914001B0
:1006E00082FD1BC09081809142018F5F8F732091AA
:1006F0004301821741F0E0914201F0E0E75DFE4FD7
:10070000958F80934201FF91EF919F918F912F914F
:100710000F900FBE0F901F9018958081F4CFCF934C
:10072000DF93CDB7DEB72A970FB6F894DEBF0FBEC2
:10073000CDBF789484B5826084BD84B5816084BD6A
:1007400085B5826085BD85B5816085BD80916E006F
:10075000816080936E0010928100809181008260A0
:1007600080938100809181008160809381008091DD
:1007700080008160809380008091B10084608093CC
:10078000B1008091B00081608093B00080917A00C8
:10079000846080937A0080917A00826080937A00EE
:1007A00080917A00816080937A0080917A008068DD
:1007B00080937A001092C100E0913901F0913A01E2
:1007C00082E08083E0913501F09136011082E09162
:1007D0003701F09138018FEC808310924101E09154
:1007E0003D01F0913E0186E08083E0913B01F09174
:1007F0003C01808180618083E0913B01F0913C016C
:10080000808188608083E0913B01F0913C01808190
:1008100080688083E0913B01F0913C0180818F7D75
:10082000808361E08DE00E94070193E2292E312C44
:1008300023E1422E552453943E018BE0680E711C37
:1008400033ECA32EB12C40E0842E40E0942E60E0E7
:100850008DE00E94D90064EF71E080E090E00E949A
:100860005D0161E085E00E94070160E085E00E9493
:10087000D90062E170E080E090E00E945D0161E0FB
:1008800085E00E94D9008BE990E00197F1F760E0E4
:1008900085E00E940701C1010197F1F70E94B500B0
:1008A000019709F45AC0C2010197F1F70E94B500FF
:1008B000892B09F452C00E94B5000197E1F38E0123
:1008C0000F5F1F4FF8011182108287E0E82EF12C94
:1008D0000E94B500892BE1F383E790E00197F1F7DF
:1008E0000E94B5008130910569F40E2C02C0880F7A
:1008F000991F0A94E2F7F80120813181822B932B12
:10090000918380830E94B5000197E1F3F1E0EF1A33
:10091000F108F0F60E5F1F4F6016710699F6C501DB
:100920000197F1F749815A812D813E818B819C810C
:10093000840F951F820F931F6F817885860F971FF5
:1009400069857A858617970741F450931F01409374
:100950001E0130931D0120931C0161E08DE00E9477
:10096000D90064EF71E080E090E00E945D01C090EA
:100970001E01D0901F010D2C000CEE08FF084AE06C
:10098000C701B601F7FE0DC06DE289E291E00E9459
:100990002F0266277727CB016C197D098E099F09E5
:1009A0004AE00E94A90282E191E00E949C0285E156
:1009B00091E00E949C02C0901C01D0901D010D2C62
:1009C000000CEE08FF084AE0C701B601F7FE0DC0B3
:1009D0006DE289E291E00E942F0266277727CB0122
:1009E0006C197D098E099F094AE00E94A90288E1DD
:1009F00091E00E949C0285E191E00E949C0281149A
:100A0000910409F424CF0E94F901882309F41FCF2F
:100A10000E9400001CCFE9E2F1E01382128288EE0E
:100A200093E0A0E0B0E084839583A683B78384E05D
:100A300091E09183808385EC90E09587848784ECB6
:100A400090E09787868780EC90E0918B808B81EC9B
:100A500090E0938B828B82EC90E0958B848B86EC7C
:100A600090E0978B868B118E128E138E148E0895C4
:100A7000A1E21A2EAA1BBB1BFD010DC0AA1FBB1FA2
:100A8000EE1FFF1FA217B307E407F50720F0A21B14
:100A9000B30BE40BF50B661F771F881F991F1A9481
:100AA00069F760957095809590959B01AC01BD01AB
:100AB000CF010895EE0FFF1F0590F491E02D0994EA
:040AC000F894FFCFD8
:100AC400000000002F028F01BC017C02ED01CB016C
:0C0AD400DF012025000D0A00202A43004D
:00000001FF
